{
  "contractName": "Calculator",
  "abi": [
    {
      "anonymous": false,
      "inputs": [
        {
          "indexed": false,
          "internalType": "string",
          "name": "msg",
          "type": "string"
        }
      ],
      "name": "success",
      "type": "event"
    },
    {
      "inputs": [],
      "name": "result",
      "outputs": [
        {
          "internalType": "uint256",
          "name": "",
          "type": "uint256"
        }
      ],
      "stateMutability": "view",
      "type": "function"
    },
    {
      "inputs": [
        {
          "internalType": "uint256",
          "name": "a",
          "type": "uint256"
        },
        {
          "internalType": "uint256",
          "name": "b",
          "type": "uint256"
        }
      ],
      "name": "addNum",
      "outputs": [
        {
          "internalType": "uint256",
          "name": "",
          "type": "uint256"
        }
      ],
      "stateMutability": "pure",
      "type": "function"
    },
    {
      "inputs": [
        {
          "internalType": "uint256",
          "name": "a",
          "type": "uint256"
        },
        {
          "internalType": "uint256",
          "name": "b",
          "type": "uint256"
        }
      ],
      "name": "SubNum",
      "outputs": [
        {
          "internalType": "uint256",
          "name": "",
          "type": "uint256"
        }
      ],
      "stateMutability": "pure",
      "type": "function"
    },
    {
      "inputs": [
        {
          "internalType": "uint256",
          "name": "a",
          "type": "uint256"
        },
        {
          "internalType": "uint256",
          "name": "b",
          "type": "uint256"
        }
      ],
      "name": "MulNum",
      "outputs": [],
      "stateMutability": "nonpayable",
      "type": "function"
    }
  ],
  "bytecode": "0x6080604052348015600e575f5ffd5b506103808061001c5f395ff3fe608060405234801561000f575f5ffd5b506004361061004a575f3560e01c8063653721471461004e578063a6659f0d1461006c578063d0e419a614610088578063e4ada89c146100b8575b5f5ffd5b6100566100e8565b6040516100639190610179565b60405180910390f35b610086600480360381019061008191906101c0565b6100ed565b005b6100a2600480360381019061009d91906101c0565b610137565b6040516100af9190610179565b60405180910390f35b6100d260048036038101906100cd91906101c0565b61014c565b6040516100df9190610179565b60405180910390f35b5f5481565b80826100f9919061022b565b5f819055507f68f068b2f0d02fca99bc8285b62fce8668fe16b7c6a810351ea25bff358c0dd860405161012b906102c6565b60405180910390a15050565b5f818361014491906102e4565b905092915050565b5f81836101599190610317565b905092915050565b5f819050919050565b61017381610161565b82525050565b5f60208201905061018c5f83018461016a565b92915050565b5f5ffd5b61019f81610161565b81146101a9575f5ffd5b50565b5f813590506101ba81610196565b92915050565b5f5f604083850312156101d6576101d5610192565b5b5f6101e3858286016101ac565b92505060206101f4858286016101ac565b9150509250929050565b7f4e487b71000000000000000000000000000000000000000000000000000000005f52601160045260245ffd5b5f61023582610161565b915061024083610161565b925082820261024e81610161565b91508282048414831517610265576102646101fe565b5b5092915050565b5f82825260208201905092915050565b7f4d756c7469706c69636174696f6e20646f6e65207375636365737366756c6c795f82015250565b5f6102b060208361026c565b91506102bb8261027c565b602082019050919050565b5f6020820190508181035f8301526102dd816102a4565b9050919050565b5f6102ee82610161565b91506102f983610161565b9250828203905081811115610311576103106101fe565b5b92915050565b5f61032182610161565b915061032c83610161565b9250828201905080821115610344576103436101fe565b5b9291505056fea2646970667358221220e149092238a4768542237a47f134424a196b28629058e79d8ea3a04a26b98f8664736f6c634300081c0033",
  "immutableReferences": {},
  "source": "// SPDX-License-Identifier: MIT\r\npragma solidity ^0.8.0;\r\n\r\ncontract Calculator {\r\n    uint public result;\r\n\r\n    event success(string msg);\r\n    \r\n    function addNum(uint a, uint b) public pure returns (uint) {\r\n        return a + b;\r\n    }\r\n    function SubNum(uint a, uint b) public pure returns (uint) {\r\n        return a - b;\r\n    }\r\n\r\n    function MulNum(uint a, uint b) public  {\r\n        result= a * b;\r\n        emit success(\"Multiplication done successfully\");\r\n    }\r\n}",
  "sourcePath": "C:\\Users\\aadis\\OneDrive\\coding\\BlockChian\\contracts\\Calculator.sol",
  "compiler": {
    "name": "solc",
    "version": "0.8.28+commit.7893614a.Emscripten.clang"
  },
  "schemaVersion": "3.4.16",
  "updatedAt": "2024-12-18T10:58:33.356Z",
  "devdoc": {
    "kind": "dev",
    "methods": {},
    "version": 1
  },
  "userdoc": {
    "kind": "user",
    "methods": {},
    "version": 1
  }
}